:100000000C9434000C9451000C9451000C94510049
:100010000C94C6000C9457010C9451000C945100A0
:100020000C9451000C9451000C9451000C94360126
:100030000C9451000C9451000C9451000C945100FC
:100040000C9451000C9451000C9477000C945100C6
:100050000C9451000C9451000C9451000C945100DC
:100060000C9451000C94510011241FBECFEFD8E026
:10007000DEBFCDBF11E0A0E0B1E0E6E4F1E102C0F7
:1000800005900D92A433B107D9F721E0A4E3B1E0C4
:1000900001C01D92AD35B207E1F70E94EF020C944A
:1000A000A1080C94000023B130E0082E02C0359561
:1000B00027950A94E2F720FD06C0EFE1FEE43197B0
:1000C000F1F700C0000021E030E002C0220F331F32
:1000D0008A95E2F783B190E082239323892BD1F3B1
:1000E0008FE19EE40197F1F700C0000008951F9290
:1000F0000F920FB60F9211248F939F93EF93FF935C
:100100008091C00087FFFCCF8091C6008C3381F4C2
:1001100081E0809345011092440110924301FF91C8
:10012000EF919F918F910F900FBE0F901F90189598
:100130008E33A1F490914501992381F08091430180
:10014000882349F081E080934401E0914301F0E08D
:10015000E35BFE4F108210924501E1CF9091450183
:100160009923E9F290ED980F9A30A8F79091430106
:10017000963088F7E0914301F0E0E35BFE4F808327
:10018000809143018F5F80934301C9CF1F920F92EB
:100190000FB60F9211242F933F938F939F93AF939A
:1001A000BF93329B1EC010928500109284008091F4
:1001B000810082608093810081E090E0909339011A
:1001C000809338011092350110923401BF91AF91A4
:1001D0009F918F913F912F910F900FBE0F901F9085
:1001E000189520913801309139012130310571F78E
:1001F000809181008D7F809381001092390110924F
:10020000380130933701209336018091840090911A
:100210008500B0E0A0E08093560190935701A09331
:100220005801B0935901CECFE1E8F0E080818860B9
:100230008083EFE6F0E080818260808380E495EB4C
:1002400090938900809388000895E0EBF0E080812E
:100250008360808380818068808387E18093B3009E
:10026000E1EBF0E080818760808308951F920F9218
:100270000FB60F9211248F939F93EF93FF9381E01A
:1002800090E09093350180933401E1E8F0E08081C3
:100290008D7F80831092850010928400FF91EF91F2
:1002A0009F918F910F900FBE0F901F9018951F92E6
:1002B0000F920FB60F9211242F933F934F935F939A
:1002C0008F939F9389B190E0909349018093480167
:1002D000809148019091490182FB442740F950E008
:1002E00050935C0140935B018091480190914901DA
:1002F00083FB222720F930E0309347012093460109
:1003000080914C01811120C080914601909147015C
:10031000892B51F480915B0190915C01892B21F034
:1003200081E080935A0190C08091460190914701ED
:10033000892B71F180915B0190915C01892B41F5D2
:1003400082E080935A0114C080914C01813009F001
:1003500059C08091460190914701892B09F044C012
:1003600080915B0190915C01892BF1F510925A010B
:1003700080913E0190913F01892B09F07FC08091CF
:100380003C0190913D01019790933D0180933C0188
:1003900080913C0190913D0197FF90C010923D01EA
:1003A00010923C0180913A0190913B0197FF95C0DA
:1003B00010923B0110923A0190915A0180914C01A8
:1003C000981739F081E08093420180915A0180931F
:1003D0004C019F918F915F914F913F912F910F9081
:1003E0000FBE0F901F901895809146019091470184
:1003F000892B71F280915B0190915C01892B41F214
:1004000083E08FCF80914C01823051F5809146017D
:1004100090914701892B41F080915B0190915C01A3
:10042000892B11F083E08DCF809146019091470197
:10043000892B09F0ADCF80915B0190915C01892BF4
:1004400009F0A6CF10925A0180913E0190913F0190
:10045000892B71F580913C0190913D01019694CFDB
:100460008091460190914701892B91F480915B0125
:1004700090915C01892B61F081E063CF80913A011A
:1004800090913B01019790933B0180933A0180CF7B
:100490008091460190914701892B09F479CF809191
:1004A0005B0190915C01892B09F072CF82E039CF1A
:1004B00080913A0190913B010196E5CF80913C01FA
:1004C00090913D01813991400CF46CCF80E991E02D
:1004D00090933D0180933C0165CF80913A019091CA
:1004E0003B01813991400CF467CF80E991E0909312
:1004F0003B0180933A0160CF9BB19F709BB99BB148
:10050000807F892B8BB9299A299A29980895CF93AE
:10051000C82F28980E947C028C2F8295807F0E9491
:100520007C028FE39FE10197F1F700C00000CF91BB
:100530000895811104C080E8860F0C94870280EC36
:10054000FBCF209A219A549A559A569A579A8FE53A
:100550009AEE0197F1F700C0000080E30E947C0250
:100560008FE19EE40197F1F700C0000080E30E9454
:100570007C028FED91E00197F1F700C0000080E36D
:100580000E947C0280E20E947C028FE39FE101973F
:10059000F1F700C0000088E20E9487028FE00C940F
:1005A0008702CF93C82F289A0E947C028C2F8295B5
:1005B000807F0E947C028FE39FE10197F1F700C0EA
:1005C0000000CF910895CF93DF93EC0189918111C1
:1005D00003C0DF91CF9108950E94D102F7CFCF934E
:1005E000DF93CDB7DEB760970FB6F894DEBF0FBECE
:1005F000CDBF0E94A1020E9414010E942501239AEE
:100600002C9A399A3B9A43983C9A259A2D9A449A67
:1006100038988AB1837F8AB98BB18C608BB980910D
:10062000C10088618093C1008091C2008660809380
:10063000C2008091680082608093680080916C00A5
:10064000846080936C00809168008460809368006F
:1006500080916D008C6080936D00789481E00E94A1
:10066000870260E080E00E94990280E091E00E94B1
:10067000E30260E081E00E9499028EE091E00E9436
:10068000E3022FEF83ED90E3215080409040E1F7AB
:1006900000C0000081E00E94870280914601909195
:1006A0004701892B09F0EAC080915B0190915C01C0
:1006B000892B09F0E3C010924C0180914C0180938A
:1006C0005A0184E690E00E943C0890933D0180939B
:1006D0003C0188EC90E00E943C0890933B018093A1
:1006E0003A0180913C0190913D018139914034F46F
:1006F00080913C0190913D0197FF04C010923D0113
:1007000010923C0180913A0190913B0181399140D6
:1007100034F480913A0190913B0197FF04C010920C
:100720003B0110923A0180913C0190913D019093E0
:100730004B0180934A018E010F5F1F4F9AE0892E73
:10074000912CA12CB12C20E9422E55245394612CDC
:10075000712C22242394312CF12CE12C8091420124
:10076000882371F180913E0190913F0161E0892BD6
:1007700009F0A4C080E00E94990285E191E00E9406
:10078000E30280913E0190913F01892B09F09CC0CA
:1007900080913C0190913D0190934B0180934A01DF
:1007A00060913C0170913D0184E690E00E94420816
:1007B00060913A0170913B0188EC90E00E94420800
:1007C000309919C08FE19EE40197F1F700C0000055
:1007D000309BFECF8FE19EE40197F1F700C000004F
:1007E00080913E0190913F01892B09F072C03092B7
:1007F0003F0120923E011C9971C084E00E94530089
:10080000419A95E39A95F1F70000419880914B0148
:100810008F9380914A018F938FE291E09F938F9302
:100820001F9284E18F931F930F930E948E0561E0C6
:1008300081E00E9499020FB6F894DEBF0FBECDBFD3
:10084000E114F10409F08ACF80914A0190914B01A3
:10085000B0E0A0E0409152015091530160915401E9
:1008600070915501481759076A077B0708F002C1C4
:100870002D984498C8010E94E3026ECF80914601F2
:1008800090914701892B51F480915B0190915C011B
:10089000892B21F081E080934C010FCF809146019C
:1008A00090914701892B41F080915B0190915C010F
:1008B000892B11F482E0EFCF83E0EDCF80E00E943E
:1008C00099028BE191E05BCF80913A0190913B01DD
:1008D00063CF10923F0110923E018DCF809136017F
:1008E00090913701019709F0A8C0209156013091ED
:1008F00057014091580150915901AAE0B0E00E947F
:100900006C0524E730E040E050E00E944A05209367
:1009100056013093570140935801509359018091EB
:10092000560190915701A0915801B09159018093BF
:10093000520190935301A0935401B09355016091DB
:100940005201709153018091540190915501A5017C
:1009500094010E944A056093560170935701809359
:100960005801909359016091520170915301809107
:10097000540190915501A50194010E944A052093CC
:1009800052013093530140935401509355012091EB
:100990005201309153014091540150915501A9EEFB
:1009A000BFEF0E947A05A30192010E944A05295EC9
:1009B0003F4F2093B300C0905601D0905701E09074
:1009C0005801F090590140915601509157016091A2
:1009D0005801709159018091520190915301A09159
:1009E0005401B0915501FF92EF92DF92CF927F9325
:1009F0006F935F934F93BF93AF939F938F9382E2D5
:100A000091E09F938F931F9284E18F931F930F9395
:100A10000E948E0567E080E00E949902C8010E9452
:100A2000E30210923701109236010FB6F894DEBF40
:100A30000FBECDBFF12CE12CE9CE80913401909115
:100A40003501019709F0E2CE67E080E00E9499024B
:100A500089E291E00E94E302109235011092340184
:100A600010923701109236012D9A449AEE24E394A5
:100A7000F12CCCCE40915201509153016091540120
:100A800070915501481759076A077B0708F4F2CEA1
:100A90002D9AEFCEA1E21A2EAA1BBB1BFD010DC0A1
:100AA000AA1FBB1FEE1FFF1FA217B307E407F5071E
:100AB00020F0A21BB30BE40BF50B661F771F881FFA
:100AC000991F1A9469F760957095809590959B0190
:100AD000AC01BD01CF0108950E947F05A59F900D37
:100AE000B49F900DA49F800D911D11240895B7FF10
:100AF0000C946C050E946C05821B930B0895A29FB9
:100B0000B001B39FC001A39F700D811D1124911DE1
:100B1000B29F700D811D1124911D0895AEE0B0E0CB
:100B2000E4E9F5E00C9478080D891E898F89988D89
:100B300026E02C831A83098397FF02C080E090E8A7
:100B400001979E838D83AE01455E5F4F698D7A8DDF
:100B5000CE0101960E94BE054D815E8157FD0AC0FF
:100B60002F813885421753070CF49A01020F131F87
:100B7000F80110822E96E4E00C949408ABE0B0E00B
:100B8000E4ECF5E00C946A087C013B018A01FC016D
:100B900017821682838181FFC8C1CE0101965C0154
:100BA000F7019381F30193FD859193FF81913F01BB
:100BB000882309F453C1853239F493FD859193FF5D
:100BC00081913F01853229F4B70190E00E94AE0780
:100BD000E7CF912C212C312CFFE1F31538F08B322B
:100BE00011F190F4803209F1833229F137FC3CC0D5
:100BF00020ED280F2A3050F536FE20C08AE0989E5E
:100C0000200D1124922E06C08D3291F0803371F7A1
:100C1000689430F8F30193FD859193FF81913F0132
:100C20008111DACF21C0689431F8689432F8F2CF9C
:100C3000689433F8EFCF689434F8ECCFEAE02E9E56
:100C4000200D1124222E689435F8E4CF8E3229F439
:100C500036FC04C1689436F8DDCF8C3619F46894FC
:100C600037F8D8CF8836B1F2982F9F7D95549330BE
:100C7000E0F08336A1F18337C1F1833509F063C019
:100C80002801F2E04F0E511CF801C080D180692D7F
:100C900070E036FC02C06FEF7FEFC6010E9498073C
:100CA0004C01689437F882010AC00C5F1F4FFFE3C4
:100CB000F98388248394912C6501E89437F833FEF6
:100CC0002DC0522C8114910471F5552009F468CF80
:100CD000B70180E290E00E94AE075A94F6CFF80187
:100CE000808189830E5F1F4FE4CF2801F2E04F0E11
:100CF000511CF801C080D180692D70E036FC02C023
:100D00006FEF7FEFC6010E94A3074C018201D5CF90
:100D1000B70180E290E00E94AE072A9428141904DB
:100D200009F0B0F7CECFF60137FC859137FE8191FF
:100D30006F01B70190E00E94AE0751105A94F1E0A4
:100D40008F1A9108BFCF843619F0893609F077C021
:100D5000F80137FE6BC060817181828193810C5FE5
:100D60001F4FF32DFF763F2E97FF09C0909580957A
:100D7000709561957F4F8F4F9F4F689437F82AE0A9
:100D800030E0A5010E94DE07C82ECA188C2C432C27
:100D900036FE0CC0E89440F8C91440F434FE05C097
:100DA00032FC03C0F32DFE7E4F2E892C44FE95C0ED
:100DB000FE01EC0DF11D8081803309F087C0242DE8
:100DC000297E422E842D8870582E43FC95C040FE0B
:100DD0008FC09C2C821418F42C0C922C981844FE72
:100DE00091C0B70180E390E00E94AE0742FE09C0C7
:100DF00088E790E041FE02C088E590E0B7010E94DC
:100E0000AE07C91408F48AC0CA94D12C9FEFC91A3E
:100E1000D90ACA0CDB1CF60182916F01B70190E080
:100E20000E94AE07AC14BD04B1F74FCF6081718151
:100E3000072E000C880B990B0E5F1F4F92CFD32CFF
:100E4000E894D4F82AE030E0853739F1232D297F62
:100E5000D22E8F3601F148F48835A9F0F70186814A
:100E600097812B96E2E10C948608803749F0883709
:100E7000A9F7D4FE02C06894D2F820E130E00DC09A
:100E80006894D4F8F6CF34FE03C0822F8660D82E43
:100E900020E132E002C028E030E0F801D7FE0FC0C8
:100EA00060817181828193810C5F1F4FA5010E9437
:100EB000DE07C82ECA183D2CE89437F867CF60814A
:100EC000718190E080E00E5F1F4FF0CF42FC02C0C6
:100ED000839478CF8394839475CF842D867809F496
:100EE00071CFF6CFB70180E290E00E94AE07839405
:100EF0008214C0F3512C73CF522C5818821408F46A
:100F00006ECFF8CF842D867809F47BCF8BE241FE3B
:100F100080E247FC8DE2B70190E071CFB70180E33A
:100F200090E00E94AE079A946CCF8FEF9FEF99CF1D
:100F3000FC010590615070400110D8F780959095A4
:100F40008E0F9F1F0895FC016150704001900110A9
:100F5000D8F7809590958E0F9F1F08950F931F933C
:100F6000CF93DF93182F092FEB018B8181FD09C0EF
:100F70001FEF0FEF812F902FDF91CF911F910F91D6
:100F8000089582FF14C02E813F818C819D81281796
:100F900039073CF4E881F981CF0101969983888370
:100FA00010838E819F8101969F838E83E3CFE88596
:100FB000F985812F0995892BA1F3DACFFA01AA27A8
:100FC000283051F1203181F1E8946F936E7F6E5F8C
:100FD0007F4F8F4F9F4FAF4FB1E03ED0B4E03CD03A
:100FE000670F781F891F9A1FA11D680F791F8A1F1D
:100FF000911DA11D6A0F711D811D911DA11D20D084
:1010000009F468943F912AE0269F11243019305D3D
:101010003193DEF6CF010895462F4770405D41932E
:10102000B3E00FD0C9F7F6CF462F4F70405D4A337B
:1010300018F0495D31FD4052419302D0A9F7EACF43
:10104000B4E0A6959795879577956795BA95C9F772
:1010500000976105710508959B01AC010A2E069465
:101060005795479537952795BA95C9F7620F731F1E
:10107000841F951FA01D0895A8E1B0E042E050E054
:101080000C944A080196272F0E9459080C9458087E
:10109000DC01CB01FC01F999FECF06C0F2BDE1BD38
:1010A000F89A319600B40D9241505040B8F7089527
:1010B000262FF999FECF92BD81BDF89A019700B411
:1010C000021639F01FBA20BD0FB6F894FA9AF99AB1
:1010D0000FBE08952F923F924F925F926F927F9230
:1010E0008F929F92AF92BF92CF92DF92EF92FF9238
:1010F0000F931F93CF93DF93CDB7DEB7CA1BDB0BE4
:101100000FB6F894DEBF0FBECDBF09942A88398888
:1011100048885F846E847D848C849B84AA84B9848F
:10112000C884DF80EE80FD800C811B81AA81B9819B
:10113000CE0FD11D0FB6F894DEBF0FBECDBFED01AF
:061140000895F894FFCFB2
:1011460045453130392050726F6A656374004164D9
:10115600616D2052004C6F63616C0052656D6F7457
:1011660065002533642E2564004572726F72002572
:0411760033640000DE
:00000001FF
